{
  "_format": "hh-sol-artifact-1",
  "contractName": "BadgeNFT",
  "sourceName": "contracts/BadgeNFT.sol",
  "abi": [
    {
      "inputs": [],
      "stateMutability": "nonpayable",
      "type": "constructor"
    },
    {
      "inputs": [
        {
          "internalType": "address",
          "name": "sender",
          "type": "address"
        },
        {
          "internalType": "uint256",
          "name": "tokenId",
          "type": "uint256"
        },
        {
          "internalType": "address",
          "name": "owner",
          "type": "address"
        }
      ],
      "name": "ERC721IncorrectOwner",
      "type": "error"
    },
    {
      "inputs": [
        {
          "internalType": "address",
          "name": "operator",
          "type": "address"
        },
        {
          "internalType": "uint256",
          "name": "tokenId",
          "type": "uint256"
        }
      ],
      "name": "ERC721InsufficientApproval",
      "type": "error"
    },
    {
      "inputs": [
        {
          "internalType": "address",
          "name": "approver",
          "type": "address"
        }
      ],
      "name": "ERC721InvalidApprover",
      "type": "error"
    },
    {
      "inputs": [
        {
          "internalType": "address",
          "name": "operator",
          "type": "address"
        }
      ],
      "name": "ERC721InvalidOperator",
      "type": "error"
    },
    {
      "inputs": [
        {
          "internalType": "address",
          "name": "owner",
          "type": "address"
        }
      ],
      "name": "ERC721InvalidOwner",
      "type": "error"
    },
    {
      "inputs": [
        {
          "internalType": "address",
          "name": "receiver",
          "type": "address"
        }
      ],
      "name": "ERC721InvalidReceiver",
      "type": "error"
    },
    {
      "inputs": [
        {
          "internalType": "address",
          "name": "sender",
          "type": "address"
        }
      ],
      "name": "ERC721InvalidSender",
      "type": "error"
    },
    {
      "inputs": [
        {
          "internalType": "uint256",
          "name": "tokenId",
          "type": "uint256"
        }
      ],
      "name": "ERC721NonexistentToken",
      "type": "error"
    },
    {
      "inputs": [
        {
          "internalType": "address",
          "name": "owner",
          "type": "address"
        }
      ],
      "name": "OwnableInvalidOwner",
      "type": "error"
    },
    {
      "inputs": [
        {
          "internalType": "address",
          "name": "account",
          "type": "address"
        }
      ],
      "name": "OwnableUnauthorizedAccount",
      "type": "error"
    },
    {
      "anonymous": false,
      "inputs": [
        {
          "indexed": true,
          "internalType": "address",
          "name": "owner",
          "type": "address"
        },
        {
          "indexed": true,
          "internalType": "address",
          "name": "approved",
          "type": "address"
        },
        {
          "indexed": true,
          "internalType": "uint256",
          "name": "tokenId",
          "type": "uint256"
        }
      ],
      "name": "Approval",
      "type": "event"
    },
    {
      "anonymous": false,
      "inputs": [
        {
          "indexed": true,
          "internalType": "address",
          "name": "owner",
          "type": "address"
        },
        {
          "indexed": true,
          "internalType": "address",
          "name": "operator",
          "type": "address"
        },
        {
          "indexed": false,
          "internalType": "bool",
          "name": "approved",
          "type": "bool"
        }
      ],
      "name": "ApprovalForAll",
      "type": "event"
    },
    {
      "anonymous": false,
      "inputs": [
        {
          "indexed": false,
          "internalType": "uint256",
          "name": "_fromTokenId",
          "type": "uint256"
        },
        {
          "indexed": false,
          "internalType": "uint256",
          "name": "_toTokenId",
          "type": "uint256"
        }
      ],
      "name": "BatchMetadataUpdate",
      "type": "event"
    },
    {
      "anonymous": false,
      "inputs": [
        {
          "indexed": false,
          "internalType": "uint256",
          "name": "_tokenId",
          "type": "uint256"
        }
      ],
      "name": "MetadataUpdate",
      "type": "event"
    },
    {
      "anonymous": false,
      "inputs": [
        {
          "indexed": true,
          "internalType": "address",
          "name": "previousOwner",
          "type": "address"
        },
        {
          "indexed": true,
          "internalType": "address",
          "name": "newOwner",
          "type": "address"
        }
      ],
      "name": "OwnershipTransferred",
      "type": "event"
    },
    {
      "anonymous": false,
      "inputs": [
        {
          "indexed": true,
          "internalType": "address",
          "name": "from",
          "type": "address"
        },
        {
          "indexed": true,
          "internalType": "address",
          "name": "to",
          "type": "address"
        },
        {
          "indexed": true,
          "internalType": "uint256",
          "name": "tokenId",
          "type": "uint256"
        }
      ],
      "name": "Transfer",
      "type": "event"
    },
    {
      "inputs": [
        {
          "internalType": "address",
          "name": "to",
          "type": "address"
        },
        {
          "internalType": "uint256",
          "name": "tokenId",
          "type": "uint256"
        }
      ],
      "name": "approve",
      "outputs": [],
      "stateMutability": "nonpayable",
      "type": "function"
    },
    {
      "inputs": [
        {
          "internalType": "address",
          "name": "owner",
          "type": "address"
        }
      ],
      "name": "balanceOf",
      "outputs": [
        {
          "internalType": "uint256",
          "name": "",
          "type": "uint256"
        }
      ],
      "stateMutability": "view",
      "type": "function"
    },
    {
      "inputs": [
        {
          "internalType": "uint256",
          "name": "tokenId",
          "type": "uint256"
        }
      ],
      "name": "getApproved",
      "outputs": [
        {
          "internalType": "address",
          "name": "",
          "type": "address"
        }
      ],
      "stateMutability": "view",
      "type": "function"
    },
    {
      "inputs": [
        {
          "internalType": "address",
          "name": "owner",
          "type": "address"
        },
        {
          "internalType": "address",
          "name": "operator",
          "type": "address"
        }
      ],
      "name": "isApprovedForAll",
      "outputs": [
        {
          "internalType": "bool",
          "name": "",
          "type": "bool"
        }
      ],
      "stateMutability": "view",
      "type": "function"
    },
    {
      "inputs": [
        {
          "internalType": "address",
          "name": "to",
          "type": "address"
        },
        {
          "internalType": "string",
          "name": "tokenURI",
          "type": "string"
        }
      ],
      "name": "mintBadge",
      "outputs": [],
      "stateMutability": "nonpayable",
      "type": "function"
    },
    {
      "inputs": [],
      "name": "name",
      "outputs": [
        {
          "internalType": "string",
          "name": "",
          "type": "string"
        }
      ],
      "stateMutability": "view",
      "type": "function"
    },
    {
      "inputs": [],
      "name": "owner",
      "outputs": [
        {
          "internalType": "address",
          "name": "",
          "type": "address"
        }
      ],
      "stateMutability": "view",
      "type": "function"
    },
    {
      "inputs": [
        {
          "internalType": "uint256",
          "name": "tokenId",
          "type": "uint256"
        }
      ],
      "name": "ownerOf",
      "outputs": [
        {
          "internalType": "address",
          "name": "",
          "type": "address"
        }
      ],
      "stateMutability": "view",
      "type": "function"
    },
    {
      "inputs": [],
      "name": "renounceOwnership",
      "outputs": [],
      "stateMutability": "nonpayable",
      "type": "function"
    },
    {
      "inputs": [
        {
          "internalType": "address",
          "name": "from",
          "type": "address"
        },
        {
          "internalType": "address",
          "name": "to",
          "type": "address"
        },
        {
          "internalType": "uint256",
          "name": "tokenId",
          "type": "uint256"
        }
      ],
      "name": "safeTransferFrom",
      "outputs": [],
      "stateMutability": "nonpayable",
      "type": "function"
    },
    {
      "inputs": [
        {
          "internalType": "address",
          "name": "from",
          "type": "address"
        },
        {
          "internalType": "address",
          "name": "to",
          "type": "address"
        },
        {
          "internalType": "uint256",
          "name": "tokenId",
          "type": "uint256"
        },
        {
          "internalType": "bytes",
          "name": "data",
          "type": "bytes"
        }
      ],
      "name": "safeTransferFrom",
      "outputs": [],
      "stateMutability": "nonpayable",
      "type": "function"
    },
    {
      "inputs": [
        {
          "internalType": "address",
          "name": "operator",
          "type": "address"
        },
        {
          "internalType": "bool",
          "name": "approved",
          "type": "bool"
        }
      ],
      "name": "setApprovalForAll",
      "outputs": [],
      "stateMutability": "nonpayable",
      "type": "function"
    },
    {
      "inputs": [
        {
          "internalType": "bytes4",
          "name": "interfaceId",
          "type": "bytes4"
        }
      ],
      "name": "supportsInterface",
      "outputs": [
        {
          "internalType": "bool",
          "name": "",
          "type": "bool"
        }
      ],
      "stateMutability": "view",
      "type": "function"
    },
    {
      "inputs": [],
      "name": "symbol",
      "outputs": [
        {
          "internalType": "string",
          "name": "",
          "type": "string"
        }
      ],
      "stateMutability": "view",
      "type": "function"
    },
    {
      "inputs": [],
      "name": "tokenCount",
      "outputs": [
        {
          "internalType": "uint256",
          "name": "",
          "type": "uint256"
        }
      ],
      "stateMutability": "view",
      "type": "function"
    },
    {
      "inputs": [
        {
          "internalType": "uint256",
          "name": "tokenId",
          "type": "uint256"
        }
      ],
      "name": "tokenURI",
      "outputs": [
        {
          "internalType": "string",
          "name": "",
          "type": "string"
        }
      ],
      "stateMutability": "view",
      "type": "function"
    },
    {
      "inputs": [
        {
          "internalType": "address",
          "name": "from",
          "type": "address"
        },
        {
          "internalType": "address",
          "name": "to",
          "type": "address"
        },
        {
          "internalType": "uint256",
          "name": "tokenId",
          "type": "uint256"
        }
      ],
      "name": "transferFrom",
      "outputs": [],
      "stateMutability": "nonpayable",
      "type": "function"
    },
    {
      "inputs": [
        {
          "internalType": "address",
          "name": "newOwner",
          "type": "address"
        }
      ],
      "name": "transferOwnership",
      "outputs": [],
      "stateMutability": "nonpayable",
      "type": "function"
    }
  ],
  "bytecode": "0x60806040523480156200001157600080fd5b50336040518060400160405280600d81526020017f526566657272616c4261646765000000000000000000000000000000000000008152506040518060400160405280600681526020017f5242414447450000000000000000000000000000000000000000000000000000815250816000908162000090919062000472565b508060019081620000a2919062000472565b505050600073ffffffffffffffffffffffffffffffffffffffff168173ffffffffffffffffffffffffffffffffffffffff16036200011a5760006040517f1e4fbdf70000000000000000000000000000000000000000000000000000000081526004016200011191906200059e565b60405180910390fd5b6200012b816200013260201b60201c565b50620005bb565b6000600760009054906101000a900473ffffffffffffffffffffffffffffffffffffffff16905081600760006101000a81548173ffffffffffffffffffffffffffffffffffffffff021916908373ffffffffffffffffffffffffffffffffffffffff1602179055508173ffffffffffffffffffffffffffffffffffffffff168173ffffffffffffffffffffffffffffffffffffffff167f8be0079c531659141344cd1fd0a4f28419497f9722a3daafe3b4186f6b6457e060405160405180910390a35050565b600081519050919050565b7f4e487b7100000000000000000000000000000000000000000000000000000000600052604160045260246000fd5b7f4e487b7100000000000000000000000000000000000000000000000000000000600052602260045260246000fd5b600060028204905060018216806200027a57607f821691505b60208210810362000290576200028f62000232565b5b50919050565b60008190508160005260206000209050919050565b60006020601f8301049050919050565b600082821b905092915050565b600060088302620002fa7fffffffffffffffffffffffffffffffffffffffffffffffffffffffffffffffff82620002bb565b620003068683620002bb565b95508019841693508086168417925050509392505050565b6000819050919050565b6000819050919050565b6000620003536200034d62000347846200031e565b62000328565b6200031e565b9050919050565b6000819050919050565b6200036f8362000332565b620003876200037e826200035a565b848454620002c8565b825550505050565b600090565b6200039e6200038f565b620003ab81848462000364565b505050565b5b81811015620003d357620003c760008262000394565b600181019050620003b1565b5050565b601f8211156200042257620003ec8162000296565b620003f784620002ab565b8101602085101562000407578190505b6200041f6200041685620002ab565b830182620003b0565b50505b505050565b600082821c905092915050565b6000620004476000198460080262000427565b1980831691505092915050565b600062000462838362000434565b9150826002028217905092915050565b6200047d82620001f8565b67ffffffffffffffff81111562000499576200049862000203565b5b620004a5825462000261565b620004b2828285620003d7565b600060209050601f831160018114620004ea5760008415620004d5578287015190505b620004e1858262000454565b86555062000551565b601f198416620004fa8662000296565b60005b828110156200052457848901518255600182019150602085019450602081019050620004fd565b8683101562000544578489015162000540601f89168262000434565b8355505b6001600288020188555050505b505050505050565b600073ffffffffffffffffffffffffffffffffffffffff82169050919050565b6000620005868262000559565b9050919050565b620005988162000579565b82525050565b6000602082019050620005b560008301846200058d565b92915050565b61268180620005cb6000396000f3fe608060405234801561001057600080fd5b50600436106101165760003560e01c8063715018a6116100a2578063a22cb46511610071578063a22cb465146102cd578063b88d4fde146102e9578063c87b56dd14610305578063e985e9c514610335578063f2fde38b1461036557610116565b8063715018a6146102695780638da5cb5b1461027357806395d89b41146102915780639f181b5e146102af57610116565b806323b872dd116100e957806323b872dd146101b557806342842e0e146101d15780636352211e146101ed5780636b2bafc81461021d57806370a082311461023957610116565b806301ffc9a71461011b57806306fdde031461014b578063081812fc14610169578063095ea7b314610199575b600080fd5b61013560048036038101906101309190611aed565b610381565b6040516101429190611b35565b60405180910390f35b6101536103e2565b6040516101609190611be0565b60405180910390f35b610183600480360381019061017e9190611c38565b610474565b6040516101909190611ca6565b60405180910390f35b6101b360048036038101906101ae9190611ced565b610490565b005b6101cf60048036038101906101ca9190611d2d565b6104a6565b005b6101eb60048036038101906101e69190611d2d565b6105a8565b005b61020760048036038101906102029190611c38565b6105c8565b6040516102149190611ca6565b60405180910390f35b61023760048036038101906102329190611eb5565b6105da565b005b610253600480360381019061024e9190611f11565b610618565b6040516102609190611f4d565b60405180910390f35b6102716106d2565b005b61027b6106e6565b6040516102889190611ca6565b60405180910390f35b610299610710565b6040516102a69190611be0565b60405180910390f35b6102b76107a2565b6040516102c49190611f4d565b60405180910390f35b6102e760048036038101906102e29190611f94565b6107a8565b005b61030360048036038101906102fe9190612075565b6107be565b005b61031f600480360381019061031a9190611c38565b6107e3565b60405161032c9190611be0565b60405180910390f35b61034f600480360381019061034a91906120f8565b6108f6565b60405161035c9190611b35565b60405180910390f35b61037f600480360381019061037a9190611f11565b61098a565b005b6000634906490660e01b7bffffffffffffffffffffffffffffffffffffffffffffffffffffffff1916827bffffffffffffffffffffffffffffffffffffffffffffffffffffffff191614806103db57506103da82610a10565b5b9050919050565b6060600080546103f190612167565b80601f016020809104026020016040519081016040528092919081815260200182805461041d90612167565b801561046a5780601f1061043f5761010080835404028352916020019161046a565b820191906000526020600020905b81548152906001019060200180831161044d57829003601f168201915b5050505050905090565b600061047f82610af2565b5061048982610b7a565b9050919050565b6104a2828261049d610bb7565b610bbf565b5050565b600073ffffffffffffffffffffffffffffffffffffffff168273ffffffffffffffffffffffffffffffffffffffff16036105185760006040517f64a0ae9200000000000000000000000000000000000000000000000000000000815260040161050f9190611ca6565b60405180910390fd5b600061052c8383610527610bb7565b610bd1565b90508373ffffffffffffffffffffffffffffffffffffffff168173ffffffffffffffffffffffffffffffffffffffff16146105a2578382826040517f64283d7b00000000000000000000000000000000000000000000000000000000815260040161059993929190612198565b60405180910390fd5b50505050565b6105c3838383604051806020016040528060008152506107be565b505050565b60006105d382610af2565b9050919050565b6105e2610deb565b6001600860008282546105f591906121fe565b9250508190555061060882600854610e72565b61061460085482610e90565b5050565b60008073ffffffffffffffffffffffffffffffffffffffff168273ffffffffffffffffffffffffffffffffffffffff160361068b5760006040517f89c62b640000000000000000000000000000000000000000000000000000000081526004016106829190611ca6565b60405180910390fd5b600360008373ffffffffffffffffffffffffffffffffffffffff1673ffffffffffffffffffffffffffffffffffffffff168152602001908152602001600020549050919050565b6106da610deb565b6106e46000610eec565b565b6000600760009054906101000a900473ffffffffffffffffffffffffffffffffffffffff16905090565b60606001805461071f90612167565b80601f016020809104026020016040519081016040528092919081815260200182805461074b90612167565b80156107985780601f1061076d57610100808354040283529160200191610798565b820191906000526020600020905b81548152906001019060200180831161077b57829003601f168201915b5050505050905090565b60085481565b6107ba6107b3610bb7565b8383610fb2565b5050565b6107c98484846104a6565b6107dd6107d4610bb7565b85858585611121565b50505050565b60606107ee82610af2565b50600060066000848152602001908152602001600020805461080f90612167565b80601f016020809104026020016040519081016040528092919081815260200182805461083b90612167565b80156108885780601f1061085d57610100808354040283529160200191610888565b820191906000526020600020905b81548152906001019060200180831161086b57829003601f168201915b5050505050905060006108996112d2565b905060008151036108ae5781925050506108f1565b6000825111156108e35780826040516020016108cb92919061226e565b604051602081830303815290604052925050506108f1565b6108ec846112e9565b925050505b919050565b6000600560008473ffffffffffffffffffffffffffffffffffffffff1673ffffffffffffffffffffffffffffffffffffffff16815260200190815260200160002060008373ffffffffffffffffffffffffffffffffffffffff1673ffffffffffffffffffffffffffffffffffffffff16815260200190815260200160002060009054906101000a900460ff16905092915050565b610992610deb565b600073ffffffffffffffffffffffffffffffffffffffff168173ffffffffffffffffffffffffffffffffffffffff1603610a045760006040517f1e4fbdf70000000000000000000000000000000000000000000000000000000081526004016109fb9190611ca6565b60405180910390fd5b610a0d81610eec565b50565b60007f80ac58cd000000000000000000000000000000000000000000000000000000007bffffffffffffffffffffffffffffffffffffffffffffffffffffffff1916827bffffffffffffffffffffffffffffffffffffffffffffffffffffffff19161480610adb57507f5b5e139f000000000000000000000000000000000000000000000000000000007bffffffffffffffffffffffffffffffffffffffffffffffffffffffff1916827bffffffffffffffffffffffffffffffffffffffffffffffffffffffff1916145b80610aeb5750610aea82611352565b5b9050919050565b600080610afe836113bc565b9050600073ffffffffffffffffffffffffffffffffffffffff168173ffffffffffffffffffffffffffffffffffffffff1603610b7157826040517f7e273289000000000000000000000000000000000000000000000000000000008152600401610b689190611f4d565b60405180910390fd5b80915050919050565b60006004600083815260200190815260200160002060009054906101000a900473ffffffffffffffffffffffffffffffffffffffff169050919050565b600033905090565b610bcc83838360016113f9565b505050565b600080610bdd846113bc565b9050600073ffffffffffffffffffffffffffffffffffffffff168373ffffffffffffffffffffffffffffffffffffffff1614610c1f57610c1e8184866115be565b5b600073ffffffffffffffffffffffffffffffffffffffff168173ffffffffffffffffffffffffffffffffffffffff1614610cb057610c616000856000806113f9565b6001600360008373ffffffffffffffffffffffffffffffffffffffff1673ffffffffffffffffffffffffffffffffffffffff168152602001908152602001600020600082825403925050819055505b600073ffffffffffffffffffffffffffffffffffffffff168573ffffffffffffffffffffffffffffffffffffffff1614610d33576001600360008773ffffffffffffffffffffffffffffffffffffffff1673ffffffffffffffffffffffffffffffffffffffff168152602001908152602001600020600082825401925050819055505b846002600086815260200190815260200160002060006101000a81548173ffffffffffffffffffffffffffffffffffffffff021916908373ffffffffffffffffffffffffffffffffffffffff160217905550838573ffffffffffffffffffffffffffffffffffffffff168273ffffffffffffffffffffffffffffffffffffffff167fddf252ad1be2c89b69c2b068fc378daa952ba7f163c4a11628f55a4df523b3ef60405160405180910390a4809150509392505050565b610df3610bb7565b73ffffffffffffffffffffffffffffffffffffffff16610e116106e6565b73ffffffffffffffffffffffffffffffffffffffff1614610e7057610e34610bb7565b6040517f118cdaa7000000000000000000000000000000000000000000000000000000008152600401610e679190611ca6565b60405180910390fd5b565b610e8c828260405180602001604052806000815250611682565b5050565b80600660008481526020019081526020016000209081610eb0919061243e565b507ff8e1a15aba9398e019f0b49df1a4fde98ee17ae345cb5f6b5e2c27f5033e8ce782604051610ee09190611f4d565b60405180910390a15050565b6000600760009054906101000a900473ffffffffffffffffffffffffffffffffffffffff16905081600760006101000a81548173ffffffffffffffffffffffffffffffffffffffff021916908373ffffffffffffffffffffffffffffffffffffffff1602179055508173ffffffffffffffffffffffffffffffffffffffff168173ffffffffffffffffffffffffffffffffffffffff167f8be0079c531659141344cd1fd0a4f28419497f9722a3daafe3b4186f6b6457e060405160405180910390a35050565b600073ffffffffffffffffffffffffffffffffffffffff168273ffffffffffffffffffffffffffffffffffffffff160361102357816040517f5b08ba1800000000000000000000000000000000000000000000000000000000815260040161101a9190611ca6565b60405180910390fd5b80600560008573ffffffffffffffffffffffffffffffffffffffff1673ffffffffffffffffffffffffffffffffffffffff16815260200190815260200160002060008473ffffffffffffffffffffffffffffffffffffffff1673ffffffffffffffffffffffffffffffffffffffff16815260200190815260200160002060006101000a81548160ff0219169083151502179055508173ffffffffffffffffffffffffffffffffffffffff168373ffffffffffffffffffffffffffffffffffffffff167f17307eab39ab6107e8899845ad3d59bd9653f200f220920489ca2b5937696c31836040516111149190611b35565b60405180910390a3505050565b60008373ffffffffffffffffffffffffffffffffffffffff163b11156112cb578273ffffffffffffffffffffffffffffffffffffffff1663150b7a02868685856040518563ffffffff1660e01b81526004016111809493929190612565565b6020604051808303816000875af19250505080156111bc57506040513d601f19601f820116820180604052508101906111b991906125c6565b60015b611240573d80600081146111ec576040519150601f19603f3d011682016040523d82523d6000602084013e6111f1565b606091505b50600081510361123857836040517f64a0ae9200000000000000000000000000000000000000000000000000000000815260040161122f9190611ca6565b60405180910390fd5b805181602001fd5b63150b7a0260e01b7bffffffffffffffffffffffffffffffffffffffffffffffffffffffff1916817bffffffffffffffffffffffffffffffffffffffffffffffffffffffff1916146112c957836040517f64a0ae920000000000000000000000000000000000000000000000000000000081526004016112c09190611ca6565b60405180910390fd5b505b5050505050565b606060405180602001604052806000815250905090565b60606112f482610af2565b5060006112ff6112d2565b9050600081511161131f576040518060200160405280600081525061134a565b80611329846116a6565b60405160200161133a92919061226e565b6040516020818303038152906040525b915050919050565b60007f01ffc9a7000000000000000000000000000000000000000000000000000000007bffffffffffffffffffffffffffffffffffffffffffffffffffffffff1916827bffffffffffffffffffffffffffffffffffffffffffffffffffffffff1916149050919050565b60006002600083815260200190815260200160002060009054906101000a900473ffffffffffffffffffffffffffffffffffffffff169050919050565b80806114325750600073ffffffffffffffffffffffffffffffffffffffff168273ffffffffffffffffffffffffffffffffffffffff1614155b1561156657600061144284610af2565b9050600073ffffffffffffffffffffffffffffffffffffffff168373ffffffffffffffffffffffffffffffffffffffff16141580156114ad57508273ffffffffffffffffffffffffffffffffffffffff168173ffffffffffffffffffffffffffffffffffffffff1614155b80156114c057506114be81846108f6565b155b1561150257826040517fa9fbf51f0000000000000000000000000000000000000000000000000000000081526004016114f99190611ca6565b60405180910390fd5b811561156457838573ffffffffffffffffffffffffffffffffffffffff168273ffffffffffffffffffffffffffffffffffffffff167f8c5be1e5ebec7d5bd14f71427d1e84f3dd0314c0f7b2291e5b200ac8c7c3b92560405160405180910390a45b505b836004600085815260200190815260200160002060006101000a81548173ffffffffffffffffffffffffffffffffffffffff021916908373ffffffffffffffffffffffffffffffffffffffff16021790555050505050565b6115c9838383611774565b61167d57600073ffffffffffffffffffffffffffffffffffffffff168373ffffffffffffffffffffffffffffffffffffffff160361163e57806040517f7e2732890000000000000000000000000000000000000000000000000000000081526004016116359190611f4d565b60405180910390fd5b81816040517f177e802f0000000000000000000000000000000000000000000000000000000081526004016116749291906125f3565b60405180910390fd5b505050565b61168c8383611835565b6116a1611697610bb7565b6000858585611121565b505050565b6060600060016116b58461192e565b01905060008167ffffffffffffffff8111156116d4576116d3611d8a565b5b6040519080825280601f01601f1916602001820160405280156117065781602001600182028036833780820191505090505b509050600082602001820190505b600115611769578080600190039150507f3031323334353637383961626364656600000000000000000000000000000000600a86061a8153600a858161175d5761175c61261c565b5b04945060008503611714575b819350505050919050565b60008073ffffffffffffffffffffffffffffffffffffffff168373ffffffffffffffffffffffffffffffffffffffff161415801561182c57508273ffffffffffffffffffffffffffffffffffffffff168473ffffffffffffffffffffffffffffffffffffffff1614806117ed57506117ec84846108f6565b5b8061182b57508273ffffffffffffffffffffffffffffffffffffffff1661181383610b7a565b73ffffffffffffffffffffffffffffffffffffffff16145b5b90509392505050565b600073ffffffffffffffffffffffffffffffffffffffff168273ffffffffffffffffffffffffffffffffffffffff16036118a75760006040517f64a0ae9200000000000000000000000000000000000000000000000000000000815260040161189e9190611ca6565b60405180910390fd5b60006118b583836000610bd1565b9050600073ffffffffffffffffffffffffffffffffffffffff168173ffffffffffffffffffffffffffffffffffffffff16146119295760006040517f73c6ac6e0000000000000000000000000000000000000000000000000000000081526004016119209190611ca6565b60405180910390fd5b505050565b600080600090507a184f03e93ff9f4daa797ed6e38ed64bf6a1f010000000000000000831061198c577a184f03e93ff9f4daa797ed6e38ed64bf6a1f01000000000000000083816119825761198161261c565b5b0492506040810190505b6d04ee2d6d415b85acef810000000083106119c9576d04ee2d6d415b85acef810000000083816119bf576119be61261c565b5b0492506020810190505b662386f26fc1000083106119f857662386f26fc1000083816119ee576119ed61261c565b5b0492506010810190505b6305f5e1008310611a21576305f5e1008381611a1757611a1661261c565b5b0492506008810190505b6127108310611a46576127108381611a3c57611a3b61261c565b5b0492506004810190505b60648310611a695760648381611a5f57611a5e61261c565b5b0492506002810190505b600a8310611a78576001810190505b80915050919050565b6000604051905090565b600080fd5b600080fd5b60007fffffffff0000000000000000000000000000000000000000000000000000000082169050919050565b611aca81611a95565b8114611ad557600080fd5b50565b600081359050611ae781611ac1565b92915050565b600060208284031215611b0357611b02611a8b565b5b6000611b1184828501611ad8565b91505092915050565b60008115159050919050565b611b2f81611b1a565b82525050565b6000602082019050611b4a6000830184611b26565b92915050565b600081519050919050565b600082825260208201905092915050565b60005b83811015611b8a578082015181840152602081019050611b6f565b60008484015250505050565b6000601f19601f8301169050919050565b6000611bb282611b50565b611bbc8185611b5b565b9350611bcc818560208601611b6c565b611bd581611b96565b840191505092915050565b60006020820190508181036000830152611bfa8184611ba7565b905092915050565b6000819050919050565b611c1581611c02565b8114611c2057600080fd5b50565b600081359050611c3281611c0c565b92915050565b600060208284031215611c4e57611c4d611a8b565b5b6000611c5c84828501611c23565b91505092915050565b600073ffffffffffffffffffffffffffffffffffffffff82169050919050565b6000611c9082611c65565b9050919050565b611ca081611c85565b82525050565b6000602082019050611cbb6000830184611c97565b92915050565b611cca81611c85565b8114611cd557600080fd5b50565b600081359050611ce781611cc1565b92915050565b60008060408385031215611d0457611d03611a8b565b5b6000611d1285828601611cd8565b9250506020611d2385828601611c23565b9150509250929050565b600080600060608486031215611d4657611d45611a8b565b5b6000611d5486828701611cd8565b9350506020611d6586828701611cd8565b9250506040611d7686828701611c23565b9150509250925092565b600080fd5b600080fd5b7f4e487b7100000000000000000000000000000000000000000000000000000000600052604160045260246000fd5b611dc282611b96565b810181811067ffffffffffffffff82111715611de157611de0611d8a565b5b80604052505050565b6000611df4611a81565b9050611e008282611db9565b919050565b600067ffffffffffffffff821115611e2057611e1f611d8a565b5b611e2982611b96565b9050602081019050919050565b82818337600083830152505050565b6000611e58611e5384611e05565b611dea565b905082815260208101848484011115611e7457611e73611d85565b5b611e7f848285611e36565b509392505050565b600082601f830112611e9c57611e9b611d80565b5b8135611eac848260208601611e45565b91505092915050565b60008060408385031215611ecc57611ecb611a8b565b5b6000611eda85828601611cd8565b925050602083013567ffffffffffffffff811115611efb57611efa611a90565b5b611f0785828601611e87565b9150509250929050565b600060208284031215611f2757611f26611a8b565b5b6000611f3584828501611cd8565b91505092915050565b611f4781611c02565b82525050565b6000602082019050611f626000830184611f3e565b92915050565b611f7181611b1a565b8114611f7c57600080fd5b50565b600081359050611f8e81611f68565b92915050565b60008060408385031215611fab57611faa611a8b565b5b6000611fb985828601611cd8565b9250506020611fca85828601611f7f565b9150509250929050565b600067ffffffffffffffff821115611fef57611fee611d8a565b5b611ff882611b96565b9050602081019050919050565b600061201861201384611fd4565b611dea565b90508281526020810184848401111561203457612033611d85565b5b61203f848285611e36565b509392505050565b600082601f83011261205c5761205b611d80565b5b813561206c848260208601612005565b91505092915050565b6000806000806080858703121561208f5761208e611a8b565b5b600061209d87828801611cd8565b94505060206120ae87828801611cd8565b93505060406120bf87828801611c23565b925050606085013567ffffffffffffffff8111156120e0576120df611a90565b5b6120ec87828801612047565b91505092959194509250565b6000806040838503121561210f5761210e611a8b565b5b600061211d85828601611cd8565b925050602061212e85828601611cd8565b9150509250929050565b7f4e487b7100000000000000000000000000000000000000000000000000000000600052602260045260246000fd5b6000600282049050600182168061217f57607f821691505b60208210810361219257612191612138565b5b50919050565b60006060820190506121ad6000830186611c97565b6121ba6020830185611f3e565b6121c76040830184611c97565b949350505050565b7f4e487b7100000000000000000000000000000000000000000000000000000000600052601160045260246000fd5b600061220982611c02565b915061221483611c02565b925082820190508082111561222c5761222b6121cf565b5b92915050565b600081905092915050565b600061224882611b50565b6122528185612232565b9350612262818560208601611b6c565b80840191505092915050565b600061227a828561223d565b9150612286828461223d565b91508190509392505050565b60008190508160005260206000209050919050565b60006020601f8301049050919050565b600082821b905092915050565b6000600883026122f47fffffffffffffffffffffffffffffffffffffffffffffffffffffffffffffffff826122b7565b6122fe86836122b7565b95508019841693508086168417925050509392505050565b6000819050919050565b600061233b61233661233184611c02565b612316565b611c02565b9050919050565b6000819050919050565b61235583612320565b61236961236182612342565b8484546122c4565b825550505050565b600090565b61237e612371565b61238981848461234c565b505050565b5b818110156123ad576123a2600082612376565b60018101905061238f565b5050565b601f8211156123f2576123c381612292565b6123cc846122a7565b810160208510156123db578190505b6123ef6123e7856122a7565b83018261238e565b50505b505050565b600082821c905092915050565b6000612415600019846008026123f7565b1980831691505092915050565b600061242e8383612404565b9150826002028217905092915050565b61244782611b50565b67ffffffffffffffff8111156124605761245f611d8a565b5b61246a8254612167565b6124758282856123b1565b600060209050601f8311600181146124a85760008415612496578287015190505b6124a08582612422565b865550612508565b601f1984166124b686612292565b60005b828110156124de578489015182556001820191506020850194506020810190506124b9565b868310156124fb57848901516124f7601f891682612404565b8355505b6001600288020188555050505b505050505050565b600081519050919050565b600082825260208201905092915050565b600061253782612510565b612541818561251b565b9350612551818560208601611b6c565b61255a81611b96565b840191505092915050565b600060808201905061257a6000830187611c97565b6125876020830186611c97565b6125946040830185611f3e565b81810360608301526125a6818461252c565b905095945050505050565b6000815190506125c081611ac1565b92915050565b6000602082840312156125dc576125db611a8b565b5b60006125ea848285016125b1565b91505092915050565b60006040820190506126086000830185611c97565b6126156020830184611f3e565b9392505050565b7f4e487b7100000000000000000000000000000000000000000000000000000000600052601260045260246000fdfea2646970667358221220861c85baf7cdb430efacebbe9122e9daac4a013967f85ac1d468a26d3fdeba0b64736f6c63430008140033",
  "linkReferences": {},
  "deployedLinkReferences": {}
}